:020000040800F2
:10000000E8080020A1010008CF1700086B170008BE
:10001000CD170008A1040008F9190008000000002D
:10002000000000000000000000000000D3170008DE
:100030005505000800000000D1170008D51700087A
:10004000BB010008BB010008BB010008BB010008A0
:10005000BB010008BB010008BB010008BB01000890
:10006000BB010008BB010008BB010008BB01000880
:10007000BB010008BB010008BB010008BB01000870
:10008000BB010008BB010008BB010008BB01000860
:10009000BB010008BB010008BB010008BB01000850
:1000A000BB010008BB010008BB010008BB01000840
:1000B000BB010008BB010008BB010008BB01000830
:1000C000BB010008BB010008BB010008BB01000820
:1000D000BB010008BB010008BB010008BB01000810
:1000E000BB010008BB010008BB010008BB01000800
:1000F000BB010008BB010008BB010008BB010008F0
:10010000BB010008BB010008BB010008BB010008DF
:10011000BB010008BB010008BB010008BB010008CF
:10012000A5040008BB010008BB010008BB010008D2
:10013000BB010008BB010008BB010008BB010008AF
:10014000BB010008BB010008BB010008BB0100089F
:10015000BB010008BB010008BB010008BB0100088F
:10016000BB010008BB010008BB010008BB0100087F
:10017000BB010008BB010008BB0100080000000033
:10018000BB010008BB010008DFF810D000F09AF8AE
:1001900000480047DD1B0008AFF30080E80800209E
:1001A0000648804706480047FEE7FEE7FEE7FEE711
:1001B000FEE7FEE7FEE7FEE7FEE7FEE75118000870
:1001C000890100082DE9F05F0546002092469B4614
:1001D00088460646814640241BE02846414647465D
:1001E000224600F05EF853465A46C01A914110D399
:1001F00011461846224600F045F82D1A67EB010813
:100200004F4622460120002100F03CF817EB000980
:100210004E41201EA4F10104DFDC484631462A4647
:100220004346BDE8F09FD2B201E000F8012B491E21
:10023000FBD270470022F6E710B513460A46044683
:100240001946FFF7F0FF204610BD421C10F8011BB5
:100250000029FBD1801A704730B50B4601460020BB
:100260002022012409E021FA02F59D4205D303FA78
:1002700002F5491B04FA02F52844151EA2F10102F9
:10028000F1DC30BD202A04DB203A00FA02F1002024
:1002900070479140C2F1200320FA03F319439040C4
:1002A0007047202A04DB203A21FA02F0002170472F
:1002B00021FA02F3D040C2F12002914008431946CE
:1002C00070470000064C074D06E0E06840F001036F
:1002D00094E8070098471034AC42F6D3FFF758FF74
:1002E000181D0008381D000810B50146806B026C0F
:1002F00012F0500F05D0026CD20626D500F0D6F9C8
:1003000010BD016C41F40071016401688A6812F04B
:10031000405F17D1027EAAB9CA6A12F4700F02D0E8
:100320008A6852050ED44A6822F020024A60016CA5
:1003300021F480710164016CC90403D4016C41F0A3
:100340000101016400F0B0F910BD806BC26CBDE822
:1003500010400846104710B5806B40210164416C85
:1003600041F00401416400F0A1F910BD10B5806BAB
:1003700000F09BF910BD0000464910B54A6822F410
:1003800040324A604A6843681A434A6001684A68D2
:1003900022F480724A6001684A68036942EA0322D3
:1003A0004A6001684A6822F040724A6001684A68FF
:1003B00083681A434A6001688A6822F400628A608E
:1003C00001688A68C3681A438A60816A6FF0706244
:1003D000D14201688A6822F070628A6001688A6886
:1003E0000CD0836A1A438A6001688A6822F04052FE
:1003F0008A6001688A68C36A1A4301E022F04052A9
:100400008A6001688A6822F002028A6001688A684C
:10041000037E42EA43028A6090F8201000290168B6
:100420004A680FD042F400624A6001684A6822F4C8
:1004300060424A6001684A68174C436A04EB4333E0
:100440001A4301E022F400624A600168CA6A22F499
:100450007002CA620168CA6A838B104C04EB0353B2
:100460001A43CA6201688A6822F400728A600168CD
:100470008A6890F8303042EA43228A6001688A68CC
:1004800022F480628A6001688A68406942EA8020BA
:10049000886010BD0023014000E0FFFF0000F0FF76
:1004A000FEE70000014800F0FBBA000084040020D1
:1004B00001681823CAB2103AB2FBF3F2054B6FF38E
:1004C0000901032A9B5CC36500D9091D81650846A3
:1004D00070470000F81C000810B5014600208B6929
:1004E0008A6A4FF0C07453B1B3F5005F15D072B192
:1004F000012A0CD0022A0AD0032A09D104E01AB139
:10050000012A06D0022A03D1C96AC90100D50120F7
:1005100010BDC96AA142FAD010BD002AF7D0012A45
:10052000F2D0022AF3D0032AF3D010BD30B504680C
:10053000256825F480252560046863608368402B66
:10054000036803D099600068C26030BD9A6000689B
:10055000C16030BD704772B6FEE7000078B5002478
:10056000009490F83C20012A19D0012280F83C2008
:100570000A6807230568092A13D9EE680A3A02EBCC
:10058000420293409E43EE600B788A680A3B03EB7D
:1005900043039A400368DD682A43DA6010E00220D2
:1005A00078BD2E6902EB420293409E432E610B7888
:1005B0008A6803EB43039A4003681D692A431A6162
:1005C0004A681F23072A13D205686E6B521E02EB7E
:1005D000820293409E436E630B790A885B1E92B23F
:1005E00003EB83039A4003685D6B2A435A6327E059
:1005F00005680D2A12D22E6BD21F02EB82029340A5
:100600009E432E630B790A88DB1F92B203EB8303B0
:100610009A4003681D6B2A431A6311E0EE6A0D3A93
:1006200002EB820293409E43EE620B790A880D3BF7
:1006300092B203EB83039A400368DD6A2A43DA62CD
:10064000164B0568144A9D4206D10D68122D03D140
:10065000556845F48005556005689D4218D10B68C2
:10066000102B01D0112B13D1536843F400035360B6
:10067000096810290CD10A490A4A0968B1FBF2F14C
:1006800001EB8101490000E0491E00910029FBD1E6
:1006900080F83C40002078BD00230140002001404C
:1006A0001000002040420F007047704770470068FC
:1006B000C06C704770B504004FF0000503D0206C8B
:1006C000002610B107E0012070BD204600F01CF8A4
:1006D000666484F83C60206CC00610D4206C20F462
:1006E000885040F0020020642046FFF745FE666413
:1006F000206C20F0020040F00100206400E00125A1
:1007000084F83C60284670BD70B586B0064614215A
:100710006846FFF78FFD1E493068884235D11D4875
:100720000025016841F480710160006800F4807068
:10073000059018481438016841F001010160006813
:10074000694600F001000590202000900320CDE9CB
:100750000105114800F028FB114C1048C4E90005C0
:100760000015A560C4E90350400060618000A061ED
:100770004011E0610002C4E90805204600F060FA7B
:1007800008B1FFF7E8FEB463A66306B070BD0000D1
:100790000020014044380240000002401064024042
:1007A000840400202DE9F041044600680D4681686C
:1007B0004FF0000749050BD58068C00508D5206CAF
:1007C00040F02000206484F83C700120BDE8F081F6
:1007D00000F0C6FB06460FE0681C0DD025B100F006
:1007E000BFFB801BA84207D9206C40F004002064A6
:1007F00084F83C700320E9E7206800688007EBD5A7
:1008000021686FF012000860206C40F400702064D2
:100810002068816811F0405F13D1217E89B9C16AD7
:1008200011F4700F02D0806840050AD4206C20F4C7
:1008300080702064206CC00403D4206C40F0010060
:1008400020640020C2E7000018B50021009190F854
:100850003C20012A07D0012280F83C2002689368DE
:10086000DB0702D011E0022018BD936843F00103BA
:1008700093602A4A2A4B1268B2FBF3F202EB42025F
:1008800000E0521E0092002AFBD102689368DB0749
:1008900041D0036C40F20164A34343F480730364CA
:1008A00053685B0505D5036C23F4005343F4805370
:1008B0000364036CDB0404D5436C23F00603436438
:1008C00000E0416480F83C1016496FF02203136089
:1008D00049680068CA06144906D088421BD181685D
:1008E00011F0405F13D016E08842F8D00F4A9042D2
:1008F00003D1D1F80423D206F1D00D4A90420AD197
:10090000D1F8041301F01F011029E8D303E0816836
:1009100041F080418160002018BD000010000020DF
:1009200040420F000023014000200140002101400F
:1009300000220140F8B50E4600210446009190F8CF
:100940003C00012807D0012084F83C00206883681F
:10095000DB0702D011E00220F8BD836843F00103F9
:1009600083603748374B0068B0FBF3F000EB400082
:1009700000E0401E00900028FBD120688368DB0760
:100980005CD0236C40F20165AB4343F48073236475
:100990004068400505D5206C20F4005040F480509C
:1009A0002064206CC00404D5606C20F006006064F4
:1009B00000E0616484F83C10A16B2448224DC863B8
:1009C000A16B23480864A16B2248C86421686FF0BA
:1009D000220008602068416841F080614160206821
:1009E000816841F4807181602168134632464C3140
:1009F000A06B00F08FF968681749C006206806D020
:100A000088421BD1816811F0405F13D016E0884204
:100A1000F8D0124A904203D1D1F80423D206F1D083
:100A20000F4A90420AD1D1F8041301F01F01102996
:100A3000E8D303E0816841F0804181600020F8BD87
:100A40001000002040420F0000230140E90200088E
:100A50006D030008570300080020014000210140F9
:100A60000022014090F83C1001290CD0012180F8AF
:100A70003C1001688A6822F001028A600168896876
:100A8000C90702D007E002207047016C21F48851A9
:100A900041F001010164002180F83C1008467047D4
:100AA0002DE9F84304464FF00009CDF80090634863
:100AB0004FF41651A56D0068B0FBF1F72E6894F85D
:100AC0005C10082000FA01F131420FD021680A6859
:100AD00052070BD50A6822F004020A6094F85C10F1
:100AE0008840A860606D40F00100606594F85C107B
:100AF0004FF0010808FA01F0304208D02168496936
:100B0000090604D5A860606D40F00200606594F8A5
:100B10005C1004208840304208D0216809688907A9
:100B200004D5A860606D40F00400606594F85C1026
:100B300010208840304218D021680968090714D570
:100B4000A86020680168490304D50068000308D53F
:100B5000A16C07E00168C90503D4016821F0080110
:100B60000160216C09B12046884794F85C10202070
:100B70008840304231D021680968C9062DD5A86067
:100B800094F8350005282068016806D0490347D548
:100B9000006800031DD4616C1CE021F016010160A7
:100BA0002068416921F080014161206C08B9A06C86
:100BB00020B12068016821F00801016094F85C1000
:100BC0003F208840A86084F8349084F83580216DF7
:100BD0001FE0E16B09B120468847606D00282BD0EB
:100BE000606DC00714D0052084F8350020680168C6
:100BF00021F0010101600098401C0090B84203D828
:100C000020680068C007F6D184F8349084F83580F5
:100C1000E16C002910D001B02046BDE8F043084740
:100C20000168C905D5D4016821F01001016084F87C
:100C3000349084F83580CCE7BDE8F88310000020BC
:100C40002DE9F041044600F08BF906465CB1002521
:100C500084F83450022084F835002068016821F0BF
:100C6000010101600DE00120BDE8F08100F078F99C
:100C7000801B052805D920206065032084F83500F5
:100C8000F2E720680068C007F0D1226811682048A8
:100C90000140D4E901031843D4E903363343184330
:100CA00063691843A3691843E3691843236A184327
:100CB0000843616A042903D1D4E90B13194308439B
:100CC000106020684069666A20F0070130460E43D4
:100CD000012704280CD1A06A0643E06A40B12046EF
:100CE000FFF7FAFB20B14020606584F83570BAE761
:100CF000206846612046FFF7DBFB94F85C203F212B
:100D000091408160656584F835700020ACE7000093
:100D10003F8010F02DE9F0410446866D90F83400D4
:100D2000002501280DD0012084F8340094F8357096
:100D30000020012F07D084F8340002252846BDE8A2
:100D4000F0810220FBE7022784F8357060652046B9
:100D5000FFF7ECFB94F85C103F208840B0602068FF
:100D6000016841F016010160206C20B12068016823
:100D700041F0080101602068016841F00101016053
:100D8000DCE7000070B5044600F0EAF80546601C98
:100D900002D004480078044400F0E2F8401BA0426E
:100DA000FAD370BD040000202DE9F84F00224FF067
:100DB000010803254FF00F0E0B6808FA02F42340D8
:100DC000A3426ED14E68012E05D0022E03D0112E03
:100DD00001D0122E12D186684FEA420C05FA0CF7A8
:100DE000BE43CF6807FA0CF7374387604668A643CF
:100DF0000C79C4F30014944034434460C66857002F
:100E000005FA07FC8C6826EA0C06BC403443C46033
:100E10004C68022C01D0122C13D1D40800EB8404AE
:100E2000A346D4F8209054074FEAD46A0EFA0AF683
:100E300029EA06090E6906FA0AF646EA0906CBF817
:100E4000206006680C7926EA0C0604F00304BC4016
:100E5000344304604C68E40065D5364C266846F49B
:100E600080462660246822F0030604F4804400943F
:100E7000314C3444A446D4F808489607370F0EFA8C
:100E800007F6B4432D4EB04201D1002624E02C4E8B
:100E9000B04201D101261FE02A4EB04202D1022603
:100EA0001AE040E0284EB04201D1032614E0274E5C
:100EB000B04201D104260FE0254EB04201D10526F3
:100EC0000AE0244EB04201D1062605E0224EB0428F
:100ED00001D1072600E00826BE402643CCF808686A
:100EE0001E4E34684F689C43FF0300D51C4334609A
:100EF0001A4C241D26684F689E43BF0300D51E432D
:100F00002660164E083634684F689C43FF0200D5B1
:100F10001C433460114E0C3634684F689C43BF024A
:100F200000D51C433460521C102AFFF445AFBDE8C5
:100F3000F88F0000443802400030014000000240B9
:100F40000004024000080240000C02400010024071
:100F50000014024000180240001C0240003C014006
:100F60000148806870470000040000200248816842
:100F70000278114481607047040000200B4810B5CE
:100F8000016841F400710160016841F48061016011
:100F9000016841F480710160032000F06FF80020C7
:100FA00000F006F800F024F8002010BD003C0240DC
:100FB00070B50D4D04464FF47A712878B1FBF0F00E
:100FC0000A490968B1FBF0F000F0F8FA48B9102CB2
:100FD00007D200222146501E00F030F800206C603D
:100FE00070BD012070BD0000040000201000002032
:100FF0000A4808B5016841F480410160006800F4C6
:10100000804000900548001F016841F08051016058
:10101000006800F08050009008BD00004438024095
:10102000002809DB00F01F020121914040098000E7
:1010300000F1E020C0F8001170470000F0B40E4B42
:101040001B680C46C3F30223C3F10705042D00D926
:101050000425191D072901D2002300E0DB1E01260B
:1010600006FA05F1491E214099409E40761E164021
:101070003143F0BC00F0DCBC0CED00E0064900F0B0
:10108000070208684FF6FF03184040EA0220034AAF
:1010900010430860704700000CED00E00000FA0506
:1010A0002DE9F0470E46050065D0DFF81481D8F829
:1010B0000000F7B200F00F00B04207D288F80070CD
:1010C000D8F8000000F00F00B04254D128683D4C21
:1010D000810712D5400703D5206840F4E050206016
:1010E0002878000703D5206840F46040206020681D
:1010F000A96820F0F000084320602878C0072DD0B0
:10110000304968680839012812D0022813D0032812
:1011100011D00968890700292DDA216821F003011F
:1011200001432160FFF71CFF814641F2883A0EE03F
:1011300009688903EFE709688901ECE7FFF710FF09
:10114000A0EB0901514502D90320BDE8F0872068D2
:10115000696800F00C00B0EB810FEFD1D8F80010F7
:10116000404601F00F01B14207D90770006800F056
:101170000F00B04201D00120E7E72878400705D5ED
:101180002068E96820F4E0500843206028780007D0
:1011900006D52068296920F4604040EAC10020603B
:1011A00000F038F82168084AC1F30311515CC840C7
:1011B0000649086006480068FFF7FAFE0020C4E709
:1011C000003C024008380240001D000810000020CA
:1011D000080000200448054900680968044AC1F372
:1011E0008221515CC840704710000020083802403E
:1011F000101D00080448054900680968044AC1F345
:101200004231515CC840704710000020083802404D
:10121000101D0008104810B5006810F00C010F48B0
:1012200018D0042916D0082914D10B4C241F21688A
:1012300001F03F02216821680023C1F38811A1FB5E
:101240000001FEF7BFFF2168C1F30141491C4900BD
:10125000B0FBF1F010BD0000083802400024F4009B
:101260002DE9F84F04006ED02078DFF83C93C007DA
:10127000A9F104054AD009F104000168C1F3810114
:10128000012908D00068C0F3810002280AD1D9F8EA
:101290000000400206D52868800337D56068002822
:1012A000E1D033E06068B0F5803F10D0B0F5A02FFA
:1012B000286810D020F480302860286820F480202E
:1012C00028606068A8B1FFF74BFE06460DE028686D
:1012D00040F48030F4E740F480202860F7E700BF56
:1012E000FFF73EFE801B642873D828688003F7D57B
:1012F0000CE0FFF735FE064605E000BFFFF730FEC5
:10130000801B6428F0D828688003F7D42078DFF8A1
:101310009C8280074FF0000A3ED5A348001D01685B
:1013200011F00C0F08D00068C0F3810002280BD127
:10133000D9F80000400207D42868800716D5E06875
:10134000012800D112E02BE1E068B8B10120C8F813
:101350000000FFF705FE064605E000BFFFF700FEB0
:10136000801B0228C0D828688007F7D52868216923
:1013700020F0F80040EAC10028600DE0C8F800A0A5
:10138000FFF7EEFD064604E0FFF7EAFD801B0228AA
:101390001FD828688007F7D42078000722D5824E0E
:1013A00083486169703671B101210160FFF7D8FD92
:1013B000074604E0FFF7D4FDC01B022809D83068B7
:1013C0008007F7D50EE0C0F800A0FFF7C9FD07467B
:1013D00005E082E0FFF7C4FDC01B02287DD830681D
:1013E0008007F7D42078400768D5DFF8BCB1002724
:1013F0000BF13C0BDBF80000C0000BD4DBF8001055
:1014000041F08051CBF80010DBF80000012700F01C
:1014100080500090674E3068C00510D4306840F4AA
:1014200080703060FFF79CFD009005E0FFF798FDAD
:101430000099401A022850D83068C005F6D55A4E97
:10144000A0686C3601280FD00528306810D020F035
:1014500001003060306820F004003060A068B8B14E
:10146000FFF77EFD00900FE0306840F00100F4E7E8
:1014700040F004003060F7E7FFF772FD0099411A71
:1014800041F28830814266D830688007F4D50EE09A
:10149000FFF766FD009007E0FFF762FD0099411A33
:1014A00041F28830814256D830688007F4D42FB199
:1014B000DBF8001021F08051CBF80010A069C8B310
:1014C0003949091D0968C1F3810102294AD002285E
:1014D000504607D0C8F8600000E03CE0FFF740FD50
:1014E00004463BE04746C8F86000FFF739FD064672
:1014F00005E000BFFFF734FD801B02282BD82868C9
:101500008001F7D4D4E907010843A16A2A4A4908AF
:1015100002EB0141626A41EA8211084394F82C10FF
:1015200040EA0161C9F8001001203866FFF718FD94
:10153000044606E036E000BFFFF712FD001B02285C
:1015400009D828688001F7D52CE000BFFFF708FD17
:10155000001B022802D90320BDE8F88F286880010B
:10156000F4D41FE00128F7D0D9F80000E26900F4B4
:101570008001914214D1226A00F03F0191420FD1C3
:1015800047F6C071626A0140914209D1A26A00F433
:101590004031914204D1E16A00F07060884201D08C
:1015A0000120D9E70020D7E7043802400000474275
:1015B000800E4742007000400000FFFF10B5401E43
:1015C000B0F1807F01D3012010BD4FF0E0246061B5
:1015D0000F21601700F02CFA0020A0610720206185
:1015E000002010BD70B5040004D094F83900002527
:1015F00010B106E0012070BD84F83850204600F09C
:1016000023F8242084F839002068C16821F40051AF
:10161000C160204600F02AF92068016921F4904158
:1016200001612068416921F02A0141612068C16897
:1016300041F40051C160E563202084F8390084F84A
:101640003A00002070BD000010B586B00446142199
:101650006846FEF7EFFD13492068884220D1124802
:101660000021026842F400320260006800F4003099
:1016700005900D481038026842F0010202600068CF
:1016800000F0010005900C2000900220CDE901013E
:10169000032003900720049069460448FFF784FB69
:1016A00006B010BD00440040403802400000024037
:1016B0002DE9F843044690F839001F4616460D46BA
:1016C000202850D1B5B1AEB194F8380001284AD0E5
:1016D000012084F838004FF00008C4F83C80212035
:1016E00084F83900FFF73CFCA6848146E68484F840
:1016F000388026E00120BDE8F883E08C401EE084BD
:10170000A0684B46B0F5805F4FF000024FF08001BB
:101710002046009703D000F03DF9E8B90DE000F055
:1017200039F9C8B928882168C0F3080048602069E1
:1017300008B16D1C05E0AD1C03E0216815F8010B34
:101740004860E08C0028D8D14B460022402120463A
:10175000009700F01FF908B10320CCE7202084F89F
:1017600039000020C7E70220C5E7FEE77FB5002467
:10177000144800940194029411490394C0E90014A0
:10178000012505618460057680F820400E49C0E996
:101790000A14C561C46080F830404561FEF78AFFD5
:1017A00008B172B6FEE70520CDE90005694602944E
:1017B0000448FEF7D3FE002801D072B6FEE77FBDD5
:1017C00000200140FC0300200100000FFEE7FEE7BF
:1017D00070477047FFF7CABB30B593B030216846F9
:1017E000FEF728FD14210CA8FEF724FD164800245E
:1017F000016841F080510160006800F08050119054
:101800001248016841F4804101600068012500F43C
:101810008040119028040694CDE900506846FFF7F7
:101820001FFD08B172B6FEE70F200C90CDE90D54F4
:101830000F9400210CA81094FFF732FC002801D06F
:1018400072B6FEE713B030BD403802400070004071
:101850000548016841F47001016003494FF00060E0
:10186000803908607047000088ED00E02DE9F04104
:10187000044600680169E26821F4405111430161A6
:101880002169A068E269084361691143084321683E
:10189000CA6849F20C639A430243CA6020684169EE
:1018A000A26921F4407111434161E069192764255F
:1018B0003226B0F5004F354A354920684FF0000810
:1018C00006D0884201D0904236D1FFF793FC35E034
:1018D000884201D0904202D1FFF78CFC01E0FFF773
:1018E00079FC61684A18A0FB070148EB0803FEF782
:1018F00069FC0146B0FBF5F00201B1FBF5F06FF0B9
:101900001803584301EB800006EBC000B0FBF5F074
:1019100000F0F80002EB4002B1FBF5F0584301EB98
:10192000800006EBC000B0FBF5F000F00700216876
:1019300010448860BDE8F081FFF74CFC61688B0FB4
:101940008A00A0FB0701FEF73DFC0146B0FBF5F065
:101950006FF01802504301EB800006EB0010B0FB63
:10196000F5F000F0F002B1FBF5F002EB0012B1FB74
:10197000F5F06FF01803584301EB800006EB001000
:10198000B0FBF5F000F00F00D1E7000000140140BB
:10199000001001402DE9F041984617460E460446D6
:1019A000069D1DE0681C1BD02DB1FFF7D9FAA0EBF6
:1019B0000800A84214D92068C16821F4D071C16020
:1019C0002068416921F001014161202084F839003B
:1019D00084F83A00002084F838000320BDE8F08144
:1019E0002068006836EA000004D00020B842D9D050
:1019F0000020F3E70120F9E7FEE700000FB47CB513
:101A00000C0009AD01D0611E00E00021CDE900010C
:101A1000064B6A462946089800F02AF8002C02D0A6
:101A2000009A002111707CBC5DF814FBC51B0008F6
:101A30000907090E002804DB00F1E02080F80014FB
:101A4000704700F00F0000F1E02080F8141D70478F
:101A500002E008C8121F08C1002AFAD17047704777
:101A6000002001E001C1121F002AFBD170470000D5
:101A70002DE9FF4F89B09B460446002506E0252846
:101A80000BD05A460B999047641C6D1C2078002897
:101A9000F5D10DB02846BDE8F08F0027B8460122E9
:101AA000474900E0074314F8013F203B02FA03F0E6
:101AB0000842F7D120782E2819D114F8010F47F0E9
:101AC00004072A280ED06FF02F022078A0F13001F1
:101AD00009290CD808EB880102EB410100EB010851
:101AE000641CF2E70A98641C50F8048B0A90207872
:101AF0000028CED0642808D0692806D075281ED0CA
:101B00005A460B9990476D1C58E00A994FF00A0904
:101B100001C90A91002802DA40422D2102E039056C
:101B200004D52B218DF82010012103E0F90704D002
:101B30002021F7E78A4608AE0DE00021FAE70A996E
:101B40004FF00A0901C90A91F7E74946FEF784FBFD
:101B5000303106F8011D0028F7D1ADEB060000F189
:101B60002009780701D44FF00108C84502DDA8EB31
:101B7000090000E000208046002706E008A85A4639
:101B8000C05D0B9990476D1C7F1C5745F6DB04E048
:101B900030205A460B9990476D1CB8F10001A8F10E
:101BA0000108F5DC05E016F8010B5A460B99904741
:101BB0006D1CB9F10001A9F10109F4DC641C65E7B1
:101BC000092801004A68002A06D00A68531C0B60E5
:101BD00010704868401E486070470000ADF5E26D27
:101BE000FFF7CCF9FFF7F8FD3B480025016841F00D
:101BF00080010160016801F08001CDF808170168DB
:101C000041F001010160016801F00101CDF8081700
:101C1000016841F4800101600068002200F4800046
:101C2000CDF8080711463820FFF708FA3820FFF7EB
:101C3000F7F9FFF79BFD2A48284901604FF4E1318D
:101C4000C0E901150C21C560C0E904518561C56179
:101C5000FFF7C8FC08B172B6FEE72148042221490B
:101C60004838FEF767FE6D464FF461781BE01C486C
:101C70004838FEF7E9FD1A4864214838FEF792FD1E
:101C800017484838FEF713FD308025F81400144833
:101C90004838FEF7E7FE641CA4B202E0114E4FF490
:101CA000E167BC42E3D34445F8D335F814300EA2C3
:101CB0004FF47A610F48FFF7A1FE0E48FEF7C5FA10
:101CC00082B24FF47A730B490548FFF7F1FC4FF4E9
:101CD000FA70FFF757F8E6E730380240004400405A
:101CE0004404002000000020427566666572203DB5
:101CF00020256400140000200006101600061016AF
:101D000000000000000000000102030406070809AB
:101D10000000000001020304381D0008000000203C
:101D200014000000501A00084C1D00081400002088
:101D3000D4080000601A0008000000000100000044
:0C1D400010000000000000000024F4006F
:040000050800018965
:00000001FF
